:100000000C9489010C94B1010C94B1010C94B101D0
:100010000C94B1010C94B1010C94B1010C94B10198
:100020000C94B1010C94B1010C94B1010C94B10188
:100030000C94B1010C94B1010C94B1010C94B10178
:100040000C941C100C94B1010C948C100C94661040
:100050000C94B1010C94B1010C94B1010C94B10158
:100060000C94BE100C94B10100407A10F35A00A019
:10007000724E18090010A5D4E80000E87648170071
:1000800000E40B54020000CA9A3B000000E1F505B1
:10009000000080969800000040420F000000A086FB
:1000A00001000000102700000000E803000000002D
:1000B0006400000000000A000000000001000000D1
:1000C00000002C76D888DC674F0823DFC1DFAE59EB
:1000D000E1B1B796E5E3E453C63AE651997696E87E
:1000E000E6C28426EB898C9B62ED407C6FFCEFBC02
:1000F0009C9F40F2BAA56FA5F490055A2AF75C932D
:100100006B6CF9676DC11BFCE0E40D47FEF520E662
:10011000B500D0ED902E0300943577050080841E45
:10012000080000204E0A000000C80C333333330FA0
:10013000986E12831141EF8D2114893BE65516CF3D
:10014000FEE6DB18D1844B381BF77C1D901DA4BB49
:10015000E424203284725E228100C9F124ECA1E5FE
:100160003D27204641494C20002050415353200058
:1001700023524553554C5420005479706520722009
:100180002B20456E74657220746F2072756E20612D
:100190006761696E005B504153535D2053454E5378
:1001A0004F5220514120504153534544202D20525D
:1001B0004541445920544F20534849500050415321
:1001C00053005B4641494C5D205141204348454323
:1001D0004B204641494C45443A20004641494C2079
:1001E0000023564552444943542000202500204313
:1001F000202052483D0020206E6F69736520702DCD
:10020000702020543D00204641494C00206F6B0077
:1002100020002020636865636B200020202D3E2095
:100220006E6F2041434B20617420307834342F307E
:100230007834352F307834363A20636865636B2024
:1002400056494E2C20474E442C205344412C2053D9
:10025000434C2C2070756C6C2D757073004C69626A
:100260007261727920004156525F41544D454741B9
:100270003332385000234D435520004D6173736D68
:100280006F72655F5348543478002350524F445581
:100290004354200076312E3000234D4153534D4FAF
:1002A00052455F464143544F52595F544553542081
:1002B00000206D73202E2E2E00486561746572201B
:1002C000636F6F6C646F776E200000000000250084
:1002D00028002B00040404040404040402020202A3
:1002E00002020303030303030102040810204080F9
:1002F0000102040810200102040810200000000878
:1003000000020100000304070000000000000000DC
:10031000DD1111241FBECFEFD8E0DEBFCDBF13E04B
:10032000A0E0B1E0E2E1F6E302C005900D92A63351
:10033000B107D9F724E0A6E3B3E001C01D92A23FC4
:10034000B207E1F711E0C9E8D1E004C02197FE014E
:100350000E940816C838D107C9F70E945C120C9495
:10036000071B0C940000FC019081909528E081E32C
:1003700097FF03C0990F982701C0990F2150C1F72B
:100380008181892798E021E387FF03C0880F8227B6
:1003900001C0880F9150C1F7089590E0FC01E4502E
:1003A000FD4F2491FC01E851FD4F3491FC01EC52CA
:1003B000FD4FE491EE23C9F0222339F0233001F1FF
:1003C000A8F4213019F1223029F1F0E0EE0FFF1FDF
:1003D000E653FD4FA591B4918FB7F894EC9161115C
:1003E00026C030953E233C938FBF08952730A9F057
:1003F0002830C9F0243049F7809180008F7D03C0F8
:10040000809180008F7780938000DFCF84B58F77D5
:1004100084BDDBCF84B58F7DFBCF8091B0008F771B
:100420008093B000D2CF8091B0008F7DF9CF3E2B6A
:10043000DACF3FB7F89480919C0390919D03A091EF
:100440009E03B0919F0326B5A89B05C02F3F19F0CE
:100450000196A11DB11D3FBFBA2FA92F982F882744
:10046000BC01CD01620F711D811D911D42E0660F1F
:10047000771F881F991F4A95D1F708958F929F92F1
:10048000AF92BF92CF92DF92EF92FF926B017C010D
:100490000E9419024B015C01C114D104E104F10472
:1004A000B9F00E941902681979098A099B09683E06
:1004B00073408105910580F321E0C21AD108E1085B
:1004C000F10888EE880E83E0981EA11CB11CE4CFD1
:1004D000FF90EF90DF90CF90BF90AF909F908F9064
:1004E00008952FB7F89460919803709199038091C3
:1004F0009A0390919B032FBF089508950895AF929A
:10050000BF92CF92DF92EF92FF920F931F93CF9300
:10051000DF936C017B018B01040F151FEB015E0162
:10052000AE18BF08C017D10759F06991D601ED91F7
:10053000FC910190F081E02DC6010995892B79F796
:10054000C501DF91CF911F910F91FF90EF90DF9048
:10055000CF90BF90AF900895FC01538D448D252F0F
:1005600030E0842F90E0821B930B541710F0CF964D
:10057000089501970895FC01918D828D981761F07F
:10058000A28DAE0FBF2FB11D5D968C91928D9F5F96
:100590009F73928F90E008958FEF9FEF0895FC0175
:1005A000918D828D981731F0828DE80FF11D858D28
:1005B00090E008958FEF9FEF0895FC01918D228DBB
:1005C000892F90E0805C9F4F821B91098F73992740
:1005D000089582E194E00E94DD0221E0892B09F474
:1005E00020E0822F089580E090E0892B29F00E947E
:1005F000E90281110C9400000895FC01A48DA80F5C
:10060000B92FB11DA35ABF4F2C91848D90E0019654
:100610008F739927848FA689B7892C93A089B18974
:100620008C91837080648C93938D848D981306C015
:100630000288F389E02D80818F7D80830895EF9279
:10064000FF920F931F93CF93DF93EC0181E0888F8C
:100650009B8D8C8D98131AC0E889F989808185FF5C
:1006600015C09FB7F894EE89FF896083E889F989FE
:1006700080818370806480839FBF81E090E0DF9100
:10068000CF911F910F91FF90EF900895F62E0B8D53
:1006900010E00F5F1F4F0F731127E02E8C8D8E110E
:1006A0000CC00FB607FCFACFE889F989808185FF75
:1006B000F5CFCE010E94FD02F1CFEB8DEC0FFD2FA7
:1006C000F11DE35AFF4FF0829FB7F8940B8FEA8930
:1006D000FB8980818062CFCF0F931F93CF93DF93ED
:1006E0008C01D0E0C0E0F801EC0FFD1F649166239F
:1006F00041F082E194E00E941F03892B11F02196C2
:10070000F2CFCE01DF91CF911F910F910895CF933A
:10071000DF93EC01888D8823B9F0AA89BB89E88929
:10072000F9898C9185FD03C0808186FD0DC00FB6CF
:1007300007FCF7CF8C9185FFF2CF808185FFEDCF4D
:10074000CE010E94FD02E9CFDF91CF910895209163
:100750007003260F3327331F21323105ECF420912B
:10076000E803FC0190E080E0243069F082E0089525
:10077000A09170032191AC01405B5C4FA40FB52F99
:10078000B11D2C930196861798F380917003680F22
:100790006093700380E0089581E008951092E8036B
:1007A00081E08093E7031092C20361E082E10E943E
:1007B000CD0161E083E10E94CD01E9EBF0E08081B1
:1007C0008E7F808380818D7F808388E48093B800D2
:1007D00085E48093BC000895CF93DF9391E09093DC
:1007E0004F038823B9F0C091B800D091BA0080912E
:1007F000BC008A7B8093BC0060E082E10E94CD0156
:1008000060E083E10E94CD010E94CE03D093BA0044
:10081000C093B800DF91CF9108958F929F92AF92CD
:10082000BF92CF92DF92EF92FF920F931F93CF93DD
:10083000DF93D0911104D13208F0D7C0182FC091A6
:1008400010040E9419026B017C018091E803811160
:100850006BC082E08093E8031093E7038FEF8093EF
:10086000E6031092E503D093E403A0EFB3E0E4ECD9
:10087000F3E080E0D81391C01092C3038091C303CA
:10088000CC0FC82BC093C3038091C203813009F001
:1008900088C01092C2030E9419026B017C018091F2
:1008A000C3038093BB008091EA039091EB03A09176
:1008B000EC03B091ED03892B8A2B8B2BA1F00E94C6
:1008C00019020091EA031091EB032091EC0330919F
:1008D000ED036C197D098E099F0906171707280774
:1008E000390708F442C08091BC0083FDD8CF85EC65
:1008F0008093BC000E9419026B017C018091E80387
:10090000823009F450C08091E6038F3F09F46FC034
:100910008091E603803209F46CC08091E603803355
:1009200009F469C084E026C08091EA039091EB034A
:10093000A091EC03B091ED03892B8A2B8B2B09F44A
:1009400084CF0E9419028090EA039090EB03A0905C
:10095000EC03B090ED036C197D098E099F09861692
:100960009706A806B90608F070CF8091E9030E94A7
:10097000EC0385E01092EF03109211041092EE0345
:10098000DF91CF911F910F91FF90EF90DF90CF906B
:10099000BF90AF909F908F9008959D9191938F5F9E
:1009A00069CF85EEA5CF8091EA039091EB03A091EA
:1009B000EC03B091ED03892B8A2B8B2B09F49ECF8E
:1009C0000E9419020091EA031091EB032091EC03BD
:1009D0003091ED036C197D098E099F0906171707E1
:1009E0002807390708F08ACFC0CF81E0C3CF80E065
:1009F000C1CF82E0BFCF83E0BDCFA091BB04B09157
:100A0000BC049091BD0421E02093EE039093100468
:100A10001092EF0310921104ED91FC911197019047
:100A2000F081E02D682FCD01099581E00E940D0431
:100A30009EEF980F923028F482E08093DB0480E0F0
:100A40000895882311F086E0F8CF81E00895CF93D0
:100A500084E90E94FD04C82F882351F061E070E012
:100A600080E090E00E943E021092DC041092DB04D1
:100A70008C2FCF9108958091BD0491E09093EE0367
:100A8000809310041092EF031092110481E00E94F1
:100A90000D04882329F082E08093DB0480E0089530
:100AA0001092DB0481E008950895E091A103809104
:100AB000A003E81730F4F0E0EE55FC4F808190E0A1
:100AC00008958FEF9FEF08959091A1038091A00367
:100AD0002FEF3FEF981748F4E92FF0E0EE55FC4F69
:100AE000208130E09F5F9093A103C9010895809118
:100AF000A0039091A103891B990B0895CF92DF92D7
:100B0000EF92FF920F931F93CF93DF937C01CB0162
:100B10008A012091EE03222389F0EB016B01C40EC0
:100B2000D51ECC15DD0569F06991D701ED91FC91D9
:100B30000190F081E02DC7010995F3CF642F0E9449
:100B4000A703C801DF91CF911F910F91FF90EF9004
:100B5000DF90CF900895CF93DF931F92CDB7DEB78C
:100B600069832091EE032223F9F0209111042032B1
:100B700058F021E030E0FC013383228390E080E0F4
:100B80000F90DF91CF9108958091EF03E82FF0E06F
:100B9000E051FC4F998190838F5F8093EF038093A6
:100BA000110481E090E0ECCF61E0CE0101960E945B
:100BB000A703F7CF90E080E00895FC0101900020AA
:100BC000E9F73197AF01481B590BBC0182E194E072
:100BD0000C947F028F929F92AF92BF920F931F93BC
:100BE000CF93DF93CDB7DEB7A1970FB6F894DEBFF2
:100BF0000FBECDBF19A2423008F44AE08E010F5D4E
:100C00001F4F842E912CB12CA12CA50194010E9480
:100C1000D715E62FB901CA01EA30F4F4E05DD80136
:100C2000EE938D01232B242B252B79F790E080E088
:100C3000109719F0CD010E94DD05A1960FB6F8942A
:100C4000DEBF0FBECDBFDF91CF911F910F91BF903F
:100C5000AF909F908F900895E95CE1CFCF93DF93A1
:100C6000D0E0C0E0009719F00E94DD05EC018FE4B0
:100C700091E00E94DD058C0F9D1FDF91CF910895BB
:100C8000CF93DF930E946C03EC018FE491E00E940C
:100C9000DD058C0F9D1FDF91CF91089581EE91E0CE
:100CA0000E946C0380914E038823C1F08BED91E08C
:100CB0000E946C0386E393E00E942E0682EC91E092
:100CC0000E946C0386E393E00E942E068FE491E07D
:100CD0000E94DD0589E791E00C9440068DEB91E0E0
:100CE0000E94400685E991E00E944006EFCFEF9216
:100CF000FF921F93CF93DF937C01162FEA0180E7C9
:100D000091E00E946C03C7010E94DD0582E691E03C
:100D1000112311F089E691E00E946C03CE01DF916E
:100D2000CF911F91FF90EF900C942E06EF92FF92BF
:100D30000F931F93CF93DF93CDB7DEB760970FB6B6
:100D4000F894DEBF0FBECDBF7C01CB01BA018E018E
:100D50000F5F1F4F22E041E00E944B13A80161E0AA
:100D6000C7010E94770660960FB6F894DEBF0FBEEB
:100D7000CDBFDF91CF911F910F91FF90EF9008951C
:100D80004F925F926F927F928F929F92AF92BF929B
:100D9000CF92DF92EF92FF920F931F93CF93DF9347
:100DA00000D000D000D0CDB7DEB76C017B01109130
:100DB000BD040E9419024B015C018091E80381117E
:100DC00066C081E08093E8038093E7039FEF9093F0
:100DD000E6031092E50395E09093E4038093C30348
:100DE0008091C303110F182B1093C3038091C2038A
:100DF000813009F0A4C01092C2030E9419024B0175
:100E00005C018091C3038093BB008091EA039091C1
:100E1000EB03A091EC03B091ED03892B8A2B8B2B74
:100E2000A1F00E9419020091EA031091EB032091B6
:100E3000EC033091ED03681979098A099B090617BB
:100E400017072807390708F443C08091BC0083FDC9
:100E5000D8CF85EC8093BC000E9419024B015C0145
:100E60008091E803813009F46CC08091E5038630FD
:100E700008F089C08091E503E4ECF3E0A2EAB3E076
:100E800090E0981751F121912D939F5FFACF8091B7
:100E9000EA039091EB03A091EC03B091ED03892B51
:100EA0008A2B8B2B09F489CF0E9419024090EA0308
:100EB0005090EB036090EC037090ED036819790992
:100EC0008A099B09461657066806790608F075CF09
:100ED0008091E9030E94EC0380E01092A1038093CB
:100EE000A003863009F079C08E010F5F1F4F5E01AD
:100EF00087E0A80EB11C48018091BB049091BC040E
:100F0000DC01ED91FC910284F385E02D0995F80157
:100F100081938F01EA15FB0579F7C4010E94B301A3
:100F20009B81891307C0CE0104960E94B3019E8164
:100F3000891759F185E08093DB0480E037C085EEA6
:100F400089CF8091EA039091EB03A091EC03B091DB
:100F5000ED03892B8A2B8B2B09F482CF0E94190277
:100F60000091EA031091EB032091EC033091ED0323
:100F7000681979098A099B0906171707280739078D
:100F800008F06ECFA5CF86E077CF89819A81982728
:100F900089279827D6018D939C938C819D819827D2
:100FA00089279827F7019183808381E026960FB6E1
:100FB000F894DEBF0FBECDBFDF91CF911F910F918F
:100FC000FF90EF90DF90CF90BF90AF909F908F9069
:100FD0007F906F905F904F9008958091BB049091A7
:100FE000BC04DC01ED91FC910084F185E02D0995B4
:100FF0001816190664F48091BB049091BC04DC01BE
:10100000ED91FC910284F385E02D0995E6CF87E010
:1010100092CF7F928F929F92AF92BF92CF92DF92A8
:10102000EF92FF920F931F93CF93DF93EC018B010D
:101030006A010E9471024B015C01F12CE12CB801A4
:10104000CE010E94C006782E811112C08091DB046F
:10105000873071F40E947102681979098A099B0925
:101060006C157D058E059F0590F084E08093DB0470
:10107000872DDF91CF911F910F91FF90EF90DF901F
:10108000CF90BF90AF909F908F907F90089561E038
:1010900070E080E090E00E943E02D1CF8F929F925C
:1010A000AF92BF92CF92DF92EF92FF920F931F9376
:1010B000CF93DF9300D000D0CDB7DEB71091BE0440
:1010C000111115C081E08093DB04812F0F900F90E8
:1010D0000F900F90DF91CF911F910F91FF90EF90A4
:1010E000DF90CF90BF90AF909F908F900895909198
:1010F000DC049150923028F488E08093DB0410E007
:10110000E4CF042F7B010E94FD04182F8823E9F20D
:10111000B70190E080E00E943E021C821B821A828E
:1011200019824091BF045091C004BE016F5F7F4F90
:10113000CE0103960E940908182F882331F2A98056
:10114000BA808B809C80B50190E080E00E942117DE
:1011500020E03FEF4FE757E40E94801620E030E0A8
:101160004AEF52E40E94D81720E030E040EC50E40F
:101170000E940E162091C6043091C7044091C80405
:101180005091C9040E940F166B017C0120E030E0F1
:10119000A9010E947B1687FD58C020E030E048EC92
:1011A00052E4C701B6010E94D317181634F4C12CBB
:1011B000D12C88ECE82E82E4F82EB40190E080E097
:1011C0000E94211720E03FEF4FE757E40E9480166E
:1011D00020E030E04FE253E40E94D81720E030E0F6
:1011E00044E352E40E940E162091C2043091C304DD
:1011F0004091C4045091C5040E940F166093CA0424
:101200007093CB048093CC049093CD04C092CE0411
:10121000D092CF04E092D004F092D1049092D30403
:101220008092D204B092D504A092D4040E9471029C
:101230006093D6047093D7048093D8049093D90414
:101240000093DA041092DB0440CFC12CD12C76013C
:10125000B4CFCF92DF92EF92FF920F931F93CF9371
:10126000DF9300D000D0CDB7DEB78C0189E80E94B3
:10127000FD048823A9F161E070E080E090E00E9425
:101280003E021C821B821A8219824091BF04509137
:10129000C004BE016F5F7F4FCE0103960E94090814
:1012A0008823F1F04B815C8170E060E0BA01552742
:1012B0004427C980DA80F12CE12C4C295D296E2964
:1012C0007F29F80140835183628373834093EC0448
:1012D0005093ED046093EE047093EF041092DB04DE
:1012E0000F900F900F900F90DF91CF911F910F9162
:1012F000FF90EF90DF90CF9008954F925F926F92A2
:101300007F928F929F92AF92BF92CF92DF92EF9295
:10131000FF926B017C01AC019B010E944518882360
:1013200081F082E591E0FF90EF90DF90CF90BF9049
:10133000AF909F908F907F906F905F904F900C94A4
:10134000DD0546015701E894B7F82FEF3FEF4FE76F
:101350005FE7C501B4010E94451881110DC02FEF50
:101360003FEF4FE75FE7C501B4010E947B161816F7
:101370001CF486E591E0D7CF2FEF3FEF4FE75FE416
:10138000C701B6010E94D31718161CF48AE591E034
:10139000CACF2FEF3FEF4FE75FECC701B6010E94C6
:1013A0007B1687FDF3CF20E030E0A901C701B6012D
:1013B0000E947B16B12CA12C87FF0AC06DE282E14E
:1013C00094E00E941F035C01F7FAF094F7F8F094A0
:1013D0002AE037ED43EA5BE3C701B6010E940F162E
:1013E0002B013C010E94F2166B017C010E94211727
:1013F0009B01AC01C301B2010E940E162B013C01FE
:101400004AE0C701B6010E94EA057C01EA0CFB1C18
:101410006EE282E194E00E941F03E80EF91E20E0D4
:1014200030E040E251E4C301B2010E94D8172B0121
:101430003C010E94F2164B01B12CA12C4AE0C501DF
:10144000B4010E94EA05E80EF91EC501B4010E942C
:1014500021179B01AC01C301B2010E940E1620E0CE
:1014600030E040E251E40E94D8170E94F21690E06A
:1014700080E04AE00E94EA058E0D9F1DFF90EF90EC
:10148000DF90CF90BF90AF909F908F907F906F90A4
:101490005F904F90089585ED8093BC008091EA03A2
:1014A0009091EB03A091EC03B091ED030796A11D81
:1014B000B11D23E0B695A795979587952A95D1F705
:1014C0002091BC0024FD03C01092E80308954091D0
:1014D000EA035091EB036091EC037091ED03452B0F
:1014E000462B472B69F30097A105B10541F02AE28D
:1014F0002A95F1F700C00197A109B109E1CF8091C8
:10150000E9030C94EC03CF93DF93EA01AB0160E0B5
:101510000E94770680914E03811109C047E150E097
:10152000BE0186E393E00E944A1810924D0381E0C9
:1015300080934E03DF91CF9108952F923F924F9267
:101540005F926F927F928F929F92AF92BF92CF9253
:10155000DF92EF92FF920F931F93CF93DF93CDB75C
:10156000DEB7AD970FB6F894DEBF0FBECDBF1092B9
:101570004E03109236038FE491E00E94DD0589E965
:1015800092E00E946C0384E992E00E9440068AE89F
:1015900092E00E946C038BE792E00E94400685E790
:1015A00092E00E946C0386E692E00E9440068DE580
:1015B00092E00E946C0386E691E00E942E068091E4
:1015C000000190910101A091020189839A83AB836C
:1015D000CE0101966C015E0194E0A90EB11CF12CC4
:1015E000860199249394F601E1906F019092EE03A5
:1015F000E09210041092EF031092110481E00E9417
:101600000D04811108C0E5E1F0E0EC0FFD1FEF0DC6
:10161000F11DE082F394CA14DB0429F7F11027C00E
:101620004CE651E066E771E08BE791E00E94830AA7
:101630008BE192E00E9440060E944E06AD960FB6E6
:10164000F894DEBF0FBECDBFDF91CF911F910F91F8
:10165000FF90EF90DF90CF90BF90AF909F908F90D2
:101660007F906F905F904F903F902F900895FD88EE
:101670001F92FF9284E891E09F938F931F9288E0DE
:101680008F931F930F930E9459180FB6F894DEBFE3
:101690000FBECDBF94E4F91221C0A80161E08BE731
:1016A00091E00E9477068CEB8F0D8330F8F089E093
:1016B0008093DB04E091DB046EE571E0EB3038F4FD
:1016C000F0E0EE0FFF1FEB5EFE4F6081718142EB99
:1016D00051E083EA91E00E94830AAECF4BE851E0EB
:1016E000B8018BE791E00E94830ADDCFF092BD0440
:1016F0001092C1041092DC041092EB0461E070E0DF
:1017000080E090E00E943E020E943B05882391F217
:101710000E942705882371F2AA24A394A092BE04F4
:1017200019821A821B821C82C8010E9429098823FF
:1017300079F089819A81AB81BC810197A109B109B6
:101740008E3F9F4FAF4FBF4F30F083E08093DB045D
:101750001092BE04AFCF8091EF048F938091EE047E
:101760008F938091ED048F938091EC048F93EBE93C
:10177000EE2EE1E0FE2EFF92EF921F92FCE0DF2EB4
:10178000DF921F930F930E945918A80161E083EA2A
:1017900091E00E9477068091EF048F938091EE0490
:1017A0008F938091ED048F938091EC048F93FF923F
:1017B000EF921F92DF921F930F930E945918A80176
:1017C00061E08BEA91E00E9477061092F10410929A
:1017D000F0040E943B05B82E0FB6F894DEBF0FBE92
:1017E000CDBF882309F464C18091F0049091F10485
:1017F00081609093F1048093F004C090BE04D09077
:10180000DC04A092BE041092DC04198A1A8A1B8A96
:101810001C8ACE0141960E942909882309F407C435
:101820008091F0049091F1049C0122603093F104C6
:101830002093F00449895A896B897C894150510968
:10184000610971094E3F5F4F6F4F7F4F28F48660EB
:101850009093F1048093F00419821A821B821C82F7
:10186000C8010E9429098823B1F049815A816B81FE
:101870007C8189899A89AB89BC89481759076A078D
:101880007B0749F48091F0049091F1048860909373
:10189000F1048093F00489899A89AB89BC8980938B
:1018A000EC049093ED04A093EE04B093EF040E9437
:1018B0002705182F40E069E070E08DEF0E944E0888
:1018C000112309F485C0882309F484C08091F004B1
:1018D0009091F10480619093F1048093F004009161
:1018E000F0041091F104C80180629093F104809398
:1018F000F0046091D2047091D304E090D404F0908D
:10190000D504CB0101978E3F9F4F08F063C02FEFA6
:10191000E216F20609F45EC090E080E00E94211712
:1019200020E03FEF4FE757E40E94801620E030E0D0
:101930004FE253E40E94D81720E030E044E352E441
:101940000E940E164B015C0120E030E040E252ECB8
:101950000E94D31718160CF03DC020E030E04AEF8B
:1019600052E4C501B4010E947B1687FF33C0B70162
:1019700090E080E00E94211720E03FEF4FE757E41E
:101980000E94801620E030E04AEF52E40E94D8170F
:1019900020E030E040EC50E40E940E164B015C0168
:1019A00020E030E040EC50EC0E94D317181694F47D
:1019B00020E030E04EEE52E4C501B4010E947B16F7
:1019C00087FF08C000661093F1040093F00402C082
:1019D000811185CF8DEF0E94FD04882389F161E09C
:1019E00070E080E090E00E943E021B8E1A8E198EFD
:1019F000188EBE01685E7F4FCE014A960E94C006D7
:101A000081110DC08091DB04873049F48091F0048E
:101A10009091F10480689093F1048093F00469E060
:101A200070E080E090E00E943E024091BF0450913F
:101A3000C004BE01685E7F4FCE014A960E9409082D
:101A400080EE0E94FD048823E9F062E070E080E00F
:101A500090E00E943E021B8E1A8E198E188EBE01D7
:101A6000685E7F4FCE014A960E94C006882309F423
:101A700067C18091F0049091F10491609093F1041A
:101A80008093F0040E942705C092BE0483E0D81220
:101A9000D12CD092DC041092DB048091F004909160
:101AA000F1049170BB24B3948F3F914009F0B12CA5
:101AB00003E011E0C12CD12C7601C39482E192E0C5
:101AC0000E946C034601F1E08F1A91084AE0C701B9
:101AD000B6010E94EA0580E192E00E946C03F801E1
:101AE000819191918F01009711F00E94DD05809105
:101AF000F0049091F10402C0969587958A94E2F7DC
:101B000080FF30C18CE092E00E944006FFEFCF1AC8
:101B1000DF0AEF0AFF0A2AE0C216D104E104F10449
:101B200069F6BB2009F421C143EC51E061E08BEC84
:101B300091E00E94770684E18D8F1C8E10E000E01A
:101B400020ECF22E3FE7E32ED12CC12C40ECB42E3A
:101B50005FE7A52E98E29AA7EBE6EBA7FEE6FCA7C7
:101B60002EEC2DA788E28EA39BE69FA3EEE6E8A7C6
:101B7000FEE4F9A728E22AA38BE68BA39EE69CA3AA
:101B8000EEECEDA3F8E2FE8F2BE62F8F8EE688A316
:101B90009EE499A340E069E070E08DEF0E944E085A
:101BA000882309F46FC02090CA043090CB04409081
:101BB000CC045090CD046090CE047090CF048090FF
:101BC000D0049090D1049101A201B101C2010E9400
:101BD0004518811157C09301A401B301C4010E94AB
:101BE000451881114FC0EC8DEF5FEC8F2D2D3C2DF2
:101BF0004B2D5A2D6D2D7C2D8B2D9A2D0E94451825
:101C0000882341F0162D072DF82CE92CD22CC32C5B
:101C1000B42CA52C2E8D3F8D48A159A1B101C20134
:101C20000E947B1687FF04C02E8E3F8E48A259A2C9
:101C30002AA13BA14CA15DA1B101C2010E94D31711
:101C4000181624F42AA23BA24CA25DA22EA13FA109
:101C500048A559A5B301C4010E947B1687FF04C0A3
:101C60006EA27FA288A699A62AA53BA54CA55DA534
:101C7000B301C4010E94D317181624F46AA67BA6E8
:101C80008CA69DA662E370E080E090E00E943E0298
:101C9000FD8DF150FD8FF1117DCF2D2D3C2D4B2D64
:101CA0005A2D6D2D7C2D8B2D9A2D0E94451881115A
:101CB00018C020E030E040E252EC6D2D7C2D8B2DE1
:101CC0009A2D0E94D317181664F420E030E04AEFF2
:101CD00052E46D2D7C2D8B2D9A2D0E947B1687FD55
:101CE000D6C0212F302F4F2D5E2D612F702F8F2DBD
:101CF0009E2D0E944518811119C020E030E0A901F5
:101D0000612F702F8F2D9E2D0E94D31787FD0EC03F
:101D10009924939420E030E048EC52E4612F702F36
:101D20008F2D9E2D0E947B1618160CF4912C48EFD7
:101D300051E06AE072E08DEE91E00E94830AD5C026
:101D400069E070E080E090E00E943E024091BF04B4
:101D50005091C004BE01685E7F4FCE014A960E943A
:101D6000090890CE86E092E0CFCE48ED51E065EED6
:101D700071E08BEC91E00E94830ADDCE49E152E0F4
:101D80006AE072E08EE092E00E94830AB9C0A70187
:101D900061E08EE392E00E94770618C18091E4042E
:101DA000882319F18091EB048823F9F02091E9044C
:101DB0003091EA04A9E0B0E00E94F9152B013C0142
:101DC0000E9471020091E5041091E6042091E7045D
:101DD0003091E804601B710B820B930B6415750541
:101DE0008605970510F48AE00CC181E08093EB042E
:101DF0008CE494E09093EA048093E9040E947102D9
:101E0000645B7B4F8F4F9F4F6093E5047093E604B4
:101E10008093E7049093E80441E06CE474E089E384
:101E20000E944E08882309F4EEC0A5019401609138
:101E3000CA047091CB048091CC049091CD040E948F
:101E40000E164B015C012AE939E949E95EE30E947B
:101E5000D31787FD07C0B501A40188E592E00E9471
:101E60009606EACBA5019401C501B4010E9445186C
:101E70008111C9C0870122E041E0C501B4010E947F
:101E80004B134FE552E0B70188E592E024CC212FB7
:101E9000302F4F2D5E2D612F702F8F2D9E2D0E9484
:101EA0004518811119C020E030E0A901612F702F81
:101EB0008F2D9E2D0E94D31787FD0EC099249394D9
:101EC00020E030E048EC52E4612F702F8F2D9E2DE2
:101ED0000E947B1618160CF4912C4D2D5C2D6B2D49
:101EE0007A2D8DEE91E00E949606992009F446CF56
:101EF000412F502F6F2D7E2D8EE092E00E9496068E
:101F00001F9284E18F931F922C8D2F938BE292E08E
:101F10009F938F931F928CE08F93CE0101967C014B
:101F20009F938F930E9459182E8D3F8D48A159A1E0
:101F30006AA17BA18CA19DA10E940E164B015C01A0
:101F40002EA13FA148A559A56AA57BA58CA59DA555
:101F50000E940E162B013C0186EF91E00E946C035B
:101F6000C501B4010E947D098EEE91E00E946C03D0
:101F7000C301B2010E947D098BEE91E00E944006F0
:101F80000FB6F894DEBF0FBECDBFFC8D41E352E02B
:101F9000F431B9F420E030E040E85FE3C501B4017A
:101FA0000E94D31718165CF020E030E040E450E4C3
:101FB000C301B2010E94D31718160CF0E8CE49E411
:101FC00052E0B7018EE392E00E94830A40E069E0AC
:101FD00070E08DEF0E944E08812C912C90ECA92E80
:101FE0009FE7B92E882341F08090CA049090CB04DB
:101FF000A090CC04B090CD048091BE048111CECECF
:1020000081E08093DB04E091DB046EE571E0EB306E
:1020100038F4F0E0EE0FFF1FEB5EFE4F6081718140
:102020004FE050E0C7010E944A18188A2ACF19824F
:102030001A821B821C822FCC1F920F920FB60F9216
:1020400011242F933F938F939F93AF93BF938091CE
:10205000980390919903A0919A03B0919B033091BA
:10206000970323E0230F2D3758F50196A11DB11DCD
:10207000209397038093980390939903A0939A03D6
:10208000B0939B0380919C0390919D03A0919E032C
:10209000B0919F030196A11DB11D80939C03909365
:1020A0009D03A0939E03B0939F03BF91AF919F9117
:1020B0008F913F912F910F900FBE0F901F90189509
:1020C00026E8230F0296A11DB11DD2CF1F920F92B9
:1020D0000FB60F9211242F933F934F935F936F93FB
:1020E0007F938F939F93AF93BF93EF93FF9382E17F
:1020F00094E00E94FD02FF91EF91BF91AF919F91FB
:102100008F917F916F915F914F913F912F910F90A0
:102110000FBE0F901F9018951F920F920FB60F923F
:1021200011242F938F939F93EF93FF93E0912204B9
:10213000F09123048081E0912804F091290482FD2C
:102140001BC0908180912B048F5F8F7320912C0492
:10215000821741F0E0912B04F0E0EE5EFB4F958F8B
:1021600080932B04FF91EF919F918F912F910F906E
:102170000FBE0F901F9018958081F4CF1F920F9281
:102180000FB60F9211242F933F934F935F936F934A
:102190007F938F939F93AF93BF93EF93FF93809120
:1021A000B900887F803609F44AC0F0F5883209F416
:1021B000A7C018F5803109F49BC0B8F4882309F44E
:1021C000F9C0883009F494C0FF91EF91BF91AF91AD
:1021D0009F918F917F916F915F914F913F912F913F
:1021E0000F900FBE0F901F901895883109F488C08A
:1021F000803251F78093E60314C0803409F49DC007
:1022000040F48033B9F38833F9F68093E60385EC24
:10221000B0C0803509F485C0883509F496C088348B
:1022200099F60E944B0AD0CF883909F48CC038F552
:10223000883729F050F4883611F0803729F683E08A
:102240008093E8031092920357C0883809F47BC04A
:10225000803919F0803809F0B7CF8091920380322D
:1022600008F071C0E091920381E08E0F8093920399
:102270008091BB00F0E0EE58FC4F80833DC0803B76
:1022800039F0E0F4803A09F479C0883A09F09CCF3B
:1022900084E08093E8031092710310927003E09140
:1022A0009503F091960309958091700381110FC0F9
:1022B00081E0809370031092500309C0803C09F4C0
:1022C000A6CF883C09F4A3CF883B09F07DCFE091ED
:1022D000710381E08E0F80937103F0E0E05BFC4FAF
:1022E00080818093BB00909171038091700329C01D
:1022F0008091C3038093BB0085EC8093BC0064CFC6
:102300009091E5038091E403981758F5E091E50377
:1023100081E08E0F8093E503F0E0EC53FC4F808169
:10232000E9CFE091E50381E08E0F8093E503809192
:10233000BB00F0E0EC53FC4F80839091E50380916B
:10234000E4039817C8F285E8D8CFE091E50381E06F
:102350008E0F8093E5038091BB00F0E0EC53FC4FBF
:1023600080838091E70381115CCF81E08093C20379
:1023700084EA8093BC001092E80326CF85EC80931A
:10238000BC001092E80380919203803230F4E09117
:102390009203F0E0EE58FC4F10826091920370E0DF
:1023A000E0919303F091940382E793E009951092F2
:1023B00092030ACF1092E60334CFE2E1F4E01382F5
:1023C000128248EE53E060E070E0448355836683F8
:1023D00077838FE291E09183808385EC90E095870D
:1023E000848784EC90E09787868780EC90E0918BDF
:1023F000808B81EC90E0938B828B82EC90E0958BCC
:10240000848B86EC90E0978B868B118E128E138EC8
:10241000148EAFEAB4E013961C921E921297149693
:102420004D935D936D937C93179781E491E01196A2
:102430009C938E93EBEBF4E0B183A08384E48283DE
:10244000138282E390E0958384831682178210863C
:1024500011861286138614861586168610A211A27E
:1024600012A213A214A215A217A216A210A681E00E
:1024700081A712A613A614A615A617A616A610AA1B
:1024800011AA12AA13AA14AA16AA15AA80E090E00B
:10249000A0ECBFE78787908BA18BB28B838B948B4B
:1024A000A58BB68B108E178A128E118E138E148EFA
:1024B000158E168E178E0895789484B5826084BD2B
:1024C00084B5816084BD85B5826085BD85B5816038
:1024D00085BD80916E00816080936E0010928100B6
:1024E0008091810082608093810080918100816071
:1024F0008093810080918000816080938000809132
:10250000B10084608093B1008091B00081608093BD
:10251000B00080917A00846080937A0080917A0084
:10252000826080937A0080917A00816080937A0043
:1025300080917A00806880937A001092C100E091C7
:102540002204F091230482E08083E0911E04F09144
:102550001F041082E0912004F091210480E1808327
:1025600010922A04E0912604F091270486E08083EB
:10257000E0912404F0912504808180618083E091C2
:102580002404F0912504808188608083E0912404F4
:10259000F0912504808180688083E0912404F0918B
:1025A000250480818F7D80831092A1031092A00367
:1025B0001092EF03109211040E94CE038DE792E077
:1025C00090939603809395038EE792E09093940303
:1025D0008093930388E48093B8000E949D0AC0E032
:1025E000D0E082E194E00E94DD02892B09F448C02A
:1025F00082E194E00E94BB028F7D8235910509F053
:102600003FC08091E4048823C9F18091EB048823C2
:10261000A9F12091E9043091EA04A9E0B0E00E9418
:10262000F9156B017C010E9471020091E504109183
:10263000E6042091E7043091E804DC01CB01801B23
:10264000910BA20BB30B8C159D05AE05BF05B0F425
:10265000C81AD90AEA0AFB0A89F089EB92E00E94BB
:102660006C034AE0C701B6010E94EA0581EB92E0E3
:102670000E944006C701B6010E943E020E949D0AC8
:10268000209709F4AECF0E94E902882309F4A9CF6C
:102690000E940000A6CFEF920F931F93CF93DF937A
:1026A000E80134E047FD34E1042E000C550B57FFE0
:1026B00003C0519541955109E32E022F242FAE01FD
:1026C0000E946913CE01DF91CF911F910F91EF907E
:1026D0000895A9E0B0E0EFE6F3E10C94A6156A01D5
:1026E000F22EB02E102FFBE3AF2EA01608F41BE342
:1026F0001F5F012F27E0AE014F5F5F4F0E94C8149C
:10270000BC018981982F9970913009F43FC09BE2F8
:10271000E1FC04C09E2D9170E0FC3AC05E2D50712A
:10272000E82FE87083FF46C084E0911101C083E088
:10273000EF2DE81B8F1508F0E0E0D6018E2F20E288
:10274000552351F1992329F0D6019C93C601019696
:102750006C0196012D5F3F4FE2FE24C08EE4D6014E
:102760008C9391E411969C93119712968C93D901B6
:102770008E2F90E281111BC0E20FF32FF11D10820A
:102780008EEF9FEF2996ECE00C94C2159DE2C6CF28
:1027900090E2C4CF2D9381508111FCCFCE0ED11C7D
:1027A000E0E0D0CF8EE6D6018C9391E6DBCF9D930F
:1027B0008150E0CF482F447082FF3DC084E09111EA
:1027C00001C083E08F1510F4EF2DE81BD6018E2F8A
:1027D00020E2552309F1992329F0D6019C93C601E3
:1027E00001966C0196012D5F3F4FE2FE1BC089E40C
:1027F000D6018C938EE411968C93119786E41296F1
:102800008C93D9018E2F90E2882309F4B5CF9D9344
:102810008150FACF2D9381508111FCCFCE0ED11C67
:10282000E0E0D9CF89E6D6018C938EE611968C93A1
:10283000119786E6E4CF9B0177FF02C030E020E0ED
:10284000A1E0B0E0911102C0B0E0A0E0F901319642
:10285000AE0FBF1F8B2C912CBB2009F461C054011B
:10286000EFEFAE1ABE0AAA0DBB1DFA161B0619F031
:1028700014F04F2D4A1B511188C0E3FC59C076015A
:10288000A42FB0E2A1114FC0C40ED11C992309F4AA
:102890005BC040E0D6011196F60190836D0155238F
:1028A00009F448C0012F060F9A81582F507184FFF8
:1028B00003C0913309F4015010160CF047C00930E1
:1028C00008F008E0EEE2FE2E5B01A01AB1088501D7
:1028D0009194819491082F3F320729F4D601FC92FC
:1028E000F60131966F016217730794F1021713070F
:1028F0007CF5DB01A21BB30BAA24A394B12CAC0E74
:10290000BD1EAA0DBB1D11968C9121503109D60117
:10291000119628153905F4F0F60180836D01DBCF9F
:10292000B12CA12CA0CFF701B1937F01A150AACF68
:102930009111B0CFD601942F50E302C05D93915016
:102940009111FCCFC40ED11C40E0ACCF01E0BACF56
:1029500080E3DBCF6217730731F4963388F4953345
:1029600011F4552369F0F6018083FD01842F90E274
:10297000811108C0A40FB11D1C9290E080E002CF2D
:1029800081E3F1CF91938150F3CF911183CF8ACF1F
:10299000283008F027E03327DA01990F311D87FD31
:1029A000916000966105710539F432602E5F3D93A8
:1029B00030E32A95E1F708959F3F30F080387105A4
:1029C000610509F03C5F3C5F3D93913008F0806801
:1029D000911DDF93CF931F930F93FF92EF92192FC7
:1029E000987F9695E92F96959695E90FFF27EE53D8
:1029F000FF4F99273327EE24FF24A701E701059015
:102A00000894079428F4360FE71EF81E491F511D3D
:102A1000660F771F881F991F0694A1F705900794EA
:102A200028F4E70EF81E491F561FC11D770F881F97
:102A3000991F661F0694A1F70590079428F4F80ED5
:102A4000491F561FC71FD11D880F991F661F771F6B
:102A50000694A1F70590079420F4490F561FC71F4D
:102A6000D81F990F661F771F881F0694A9F78491B6
:102A70001095177041F0D695C79557954795F794DF
:102A8000E7941A95C1F7E8E6F0E06894159015917F
:102A900035916591959105907FE27395E118F10A62
:102AA000430B560BC90BD009C0F7E10CF11E431FB5
:102AB000561FC91FD01D7EF4703311F48A95E6CFDE
:102AC000E894015030F0080F0AF40027021708F4C8
:102AD000202F2395022F7A3328F079E37D932A95CE
:102AE000E9F710C07D932A9589F606949795679526
:102AF000379517951794E118F10A430B560BC90B3C
:102B0000D00998F023957E9173957A3308F070E39D
:102B10007C932013B8F77E9170617D9330F083959C
:102B200071E37D9370E32A95E1F71124EF90FF9014
:102B30000F911F91CF91DF91992787FD909508956F
:102B40002F923F924F925F926F927F928F929F92BD
:102B5000AF92BF92CF92DF92EF92FF920F931F93AB
:102B6000CF93DF93CDB7DEB7CA1BDB0B0FB6F8945C
:102B7000DEBF0FBECDBF09942A88398848885F849C
:102B80006E847D848C849B84AA84B984C884DF800D
:102B9000EE80FD800C811B81AA81B981CE0FD11DF1
:102BA0000FB6F894DEBF0FBECDBFED010895A1E2D0
:102BB0001A2EAA1BBB1BFD010DC0AA1FBB1FEE1FB7
:102BC000FF1FA217B307E407F50720F0A21BB30B02
:102BD000E40BF50B661F771F881F991F1A9469F77E
:102BE00060957095809590959B01AC01BD01CF01DA
:102BF0000895A29FB001B39FC001A39F700D811DD6
:102C00001124911DB29F700D811D1124911D0895F5
:102C1000EE0FFF1F0590F491E02D09945058BB274B
:102C2000AA270E9426160C9499170E948B1738F039
:102C30000E94921720F039F49F3F19F426F40C9467
:102C400088170EF4E095E7FB0C948217E92F0E9499
:102C5000AA1758F3BA17620773078407950720F07D
:102C600079F4A6F50C94CC170EF4E0950B2EBA2F40
:102C7000A02D0B01B90190010C01CA01A001112482
:102C8000FF27591B99F0593F50F4503E68F11A162E
:102C9000F040A22F232F342F4427585FF3CF4695BF
:102CA00037952795A795F0405395C9F77EF41F16E1
:102CB000BA0B620B730B840BBAF09150A1F0FF0FAB
:102CC000BB1F661F771F881FC2F70EC0BA0F621F97
:102CD000731F841F48F4879577956795B795F79587
:102CE0009E3F08F0B0CF9395880F08F09927EE0F1C
:102CF0009795879508950E945E1708F481E00895DE
:102D00000E9494160C9499170E94921758F00E94F2
:102D10008B1740F029F45F3F29F00C948217511172
:102D20000C94CD170C9488170E94AA1768F3992366
:102D3000B1F3552391F3951B550BBB27AA276217B7
:102D40007307840738F09F5F5F4F220F331F441FC4
:102D5000AA1FA9F335D00E2E3AF0E0E832D09150F8
:102D60005040E695001CCAF72BD0FE2F29D0660FE5
:102D7000771F881FBB1F261737074807AB07B0E828
:102D800009F0BB0B802DBF01FF2793585F4F3AF02E
:102D90009E3F510578F00C9482170C94CD175F3F3D
:102DA000E4F3983ED4F3869577956795B795F795B4
:102DB0009F5FC9F7880F911D9695879597F908959C
:102DC000E1E0660F771F881FBB1F62177307840738
:102DD000BA0720F0621B730B840BBA0BEE1F88F747
:102DE000E09508950E94B21788F09F5798F0B92F88
:102DF0009927B751B0F0E1F0660F771F881F991F30
:102E00001AF0BA95C9F714C0B13091F00E94CC17EE
:102E1000B1E008950C94CC17672F782F8827B85FFE
:102E200039F0B93FCCF3869577956795B395D9F787
:102E30003EF490958095709561957F4F8F4F9F4F91
:102E40000895E89409C097FB3EF49095809570959D
:102E500061957F4F8F4F9F4F9923A9F0F92F96E9E6
:102E6000BB279395F695879577956795B795F1115B
:102E7000F8CFFAF4BB0F11F460FF1BC06F5F7F4FF8
:102E80008F4F9F4F16C0882311F096E911C077230A
:102E900021F09EE8872F762F05C0662371F096E813
:102EA000862F70E060E02AF09A95660F771F881FE2
:102EB000DAF7880F9695879597F90895990F000886
:102EC000550FAA0BE0E8FEEF16161706E807F907FC
:102ED000C0F012161306E407F50798F0621B730B97
:102EE000840B950B39F40A2661F0232B242B252B18
:102EF00021F408950A2609F4A140A6958FEF811DBB
:102F0000811D089597F99F6780E870E060E008955B
:102F10009FEF80EC089500240A94161617061806F1
:102F20000906089500240A941216130614060506CD
:102F30000895092E0394000C11F4882352F0BB0F5E
:102F400040F4BF2B11F460FF04C06F5F7F4F8F4FC1
:102F50009F4F089557FD9058440F551F59F05F3FFC
:102F600071F04795880F97FB991F61F09F3F79F0AB
:102F700087950895121613061406551FF2CF46952D
:102F8000F1DF08C0161617061806991FF1CF8695AF
:102F90007105610508940895E894BB276627772793
:102FA000CB0197F908950E945E1708F48FEF0895FA
:102FB0000E94EB170C9499170E948B1738F00E940F
:102FC000921720F0952311F00C9482170C94881717
:102FD00011240C94CD170E94AA1770F3959FC1F38A
:102FE000950F50E0551F629FF001729FBB27F00DB7
:102FF000B11D639FAA27F00DB11DAA1F649F66270C
:10300000B00DA11D661F829F2227B00DA11D621F5A
:10301000739FB00DA11D621F839FA00D611D221F14
:10302000749F3327A00D611D231F849F600D211DF8
:10303000822F762F6A2F11249F5750409AF0F1F07B
:1030400088234AF0EE0FFF1FBB1F661F771F881FE4
:1030500091505040A9F79E3F510580F00C94821783
:103060000C94CD175F3FE4F3983ED4F386957795A3
:103070006795B795F795E7959F5FC1F7FE2B880F8A
:10308000911D9695879597F908950E945E17880B74
:10309000990B0895FB01DC014150504048F001902C
:1030A0000D920020C9F701C01D9241505040E0F739
:1030B0000895AEE0B0E0EFE5F8E10C94AE150D89AF
:1030C0001E898F89988D26E02C831A83098397FFA8
:1030D00002C080E090E801979E838D83AE01455E3B
:1030E0005F4F698D7A8DCE0101960E9489184D81BE
:1030F0005E8157FD0AC02F813885421753070CF4B3
:103100009A01020F131FF80110822E96E4E00C942E
:10311000CA15ABE0B0E0EFE8F8E10C94A0157C0133
:103120003B018A01FC0117821682838181FFC8C19D
:10313000CE0101965C01F7019381F30193FD859126
:1031400093FF81913F01882309F453C1853239F4FB
:1031500093FD859193FF81913F01853229F4B70159
:1031600090E00E94791AE7CF912C212C312CFFE1BD
:10317000F31538F08B3211F190F4803209F183327B
:1031800029F137FC3CC020ED280F2A3050F536FEDF
:1031900020C08AE0989E200D1124922E06C08D3208
:1031A00091F0803371F7689430F8F30193FD8591C5
:1031B00093FF81913F018111DACF21C0689431F8EA
:1031C000689432F8F2CF689433F8EFCF689434F80B
:1031D000ECCFEAE02E9E200D1124222E689435F8C3
:1031E000E4CF8E3229F436FC04C1689436F8DDCF82
:1031F0008C3619F4689437F8D8CF8836B1F2982F06
:103200009F7D95549330E0F08336A1F18337C1F16F
:10321000833509F063C02801F2E04F0E511CF8011C
:10322000C080D180692D70E036FC02C06FEF7FEF67
:10323000C6010E94631A4C01689437F882010AC0E3
:103240000C5F1F4FFFE3F98388248394912C650161
:10325000E89437F833FE2DC0522C8114910471F597
:10326000552009F468CFB70180E290E00E94791AF6
:103270005A94F6CFF801808189830E5F1F4FE4CF07
:103280002801F2E04F0E511CF801C080D180692D59
:1032900070E036FC02C06FEF7FEFC6010E946E1A2D
:1032A0004C018201D5CFB70180E290E00E94791AEB
:1032B0002A942814190409F0B0F7CECFF60137FC90
:1032C000859137FE81916F01B70190E00E94791AD4
:1032D00051105A94F1E08F1A9108BFCF843619F03B
:1032E000893609F077C0F80137FE6BC060817181C3
:1032F000828193810C5F1F4FF32DFF763F2E97FF46
:1033000009C090958095709561957F4F8F4F9F4F25
:10331000689437F82AE030E0A5010E94A91AC82E67
:10332000CA188C2C432C36FE0CC0E89440F8C91403
:1033300040F434FE05C032FC03C0F32DFE7E4F2E58
:10334000892C44FE95C0FE01EC0DF11D8081803377
:1033500009F087C0242D297E422E842D8870582E96
:1033600043FC95C040FE8FC09C2C821418F42C0C9A
:10337000922C981844FE91C0B70180E390E00E941F
:10338000791A42FE09C088E790E041FE02C088E554
:1033900090E0B7010E94791AC91408F48AC0CA944F
:1033A000D12C9FEFC91AD90ACA0CDB1CF6018291F5
:1033B0006F01B70190E00E94791AAC14BD04B1F717
:1033C0004FCF60817181072E000C880B990B0E5F27
:1033D0001F4F92CFD32CE894D4F82AE030E0853701
:1033E00039F1232D297FD22E8F3601F148F488350B
:1033F000A9F0F701868197812B96E2E10C94BC1528
:10340000803749F08837A9F7D4FE02C06894D2F813
:1034100020E130E00DC06894D4F8F6CF34FE03C04C
:10342000822F8660D82E20E132E002C028E030E012
:10343000F801D7FE0FC060817181828193810C5F9A
:103440001F4FA5010E94A91AC82ECA183D2CE89446
:1034500037F867CF6081718190E080E00E5F1F4F89
:10346000F0CF42FC02C0839478CF8394839475CFCD
:10347000842D867809F471CFF6CFB70180E290E011
:103480000E94791A83948214C0F3512C73CF522C6A
:103490005818821408F46ECFF8CF842D867809F47A
:1034A0007BCF8BE241FE80E247FC8DE2B70190E0EA
:1034B00071CFB70180E390E00E94791A9A946CCFA3
:1034C0008FEF9FEF99CFFC01059061507040011084
:1034D000D8F7809590958E0F9F1F0895FC0161503D
:1034E000704001900110D8F7809590958E0F9F1F26
:1034F00008950F931F93CF93DF93182F092FEB019C
:103500008B8181FD09C01FEF0FEF812F902FDF917D
:10351000CF911F910F91089582FF14C02E813F819A
:103520008C819D81281739073CF4E881F981CF010E
:1035300001969983888310838E819F8101969F8352
:103540008E83E3CFE885F985812F0995892BA1F337
:10355000DACFFA01AA27283051F1203181F1E8941D
:103560006F936E7F6E5F7F4F8F4F9F4FAF4FB1E076
:103570003ED0B4E03CD0670F781F891F9A1FA11D71
:10358000680F791F8A1F911DA11D6A0F711D811D72
:10359000911DA11D20D009F468943F912AE0269F37
:1035A00011243019305D3193DEF6CF010895462F96
:1035B0004770405D4193B3E00FD0C9F7F6CF462F77
:1035C0004F70405D4A3318F0495D31FD40524193E0
:1035D00002D0A9F7EACFB4E0A6959795879577959D
:1035E0006795BA95C9F700976105710508959B0124
:1035F000AC010A2E06945795479537952795BA95AD
:10360000C9F7620F731F841F951FA01D0895F894BA
:02361000FFCFEA
:1036120044454672027A02850291029F02AA02B3CF
:1036220002BE02CE02DD02E002EA02F402FD02055F
:10363200030E031803C90222032A03000000001F1D
:10364200037F02AC028703DD02BB02CF020000004F
:1036520000AB057E05DA0554057705640555050DB1
:103662000A006E616E00696E66006F766600554EE6
:103672004B4E4F574E00322E302E30004E4F5F448D
:103682004556494345004E4F4E45004255535F5300
:1036920043414E0030782530325800554E4558503F
:1036A20045435445445F4144445200307825303804
:1036B2006C5800434849505F4944005345524941C0
:1036C2004C00434849505F49445F4D49534D415472
:1036D20043480047454E55494E45004155544845DB
:1036E2004E5449434954590041555448454E544952
:1036F200434954595F535553504543540052414E28
:1037020047455F54454D500054454D505F4F555409
:103712005F4F465F52414E4745004E414E00524177
:103722004E47455F48554D490048554D495F4F55F5
:10373200545F4F465F52414E47450025752F257510
:1037420000524541445F44524F504F555400434F3D
:103752004E54494E554F5553004E4F4953455F54B1
:103762004F4F5F4849474800484541544552004839
:1037720045415445525F4E4F5F524553504F4E5351
:1037820045004932435F41434B0053455249414C46
:103792005F4352430053455249414C5F53414E45AA
:1037A2000053455249414C5F535441424C450053EA
:1037B2004F46545F5245534554004D4541535F4374
:1037C2005243004D4541535F52414E4745004E41E1
:1037D200434B5F5748494C455F42555359004C4F44
:1037E200575F5245535F464153544552004F4B0079
:1037F2004E4F545F424547554E004E4F545F464F21
:10380200554E440057524F4E475F49440054494D6C
:10381200454F5554004352435F4641494C0042557F
:10382200535F4552524F52004E4F545F52454144EE
:1038320059004241445F4152470048454154455274
:063842005F4455545900DB
:00000001FF
